:03000000020006F5
:03005F0002000399
:0300030002006296
:10006200900000227800900E00E893F9900E80E84C
:0E0072009349FCE5F360FC08ECF5F270E9221E
:06003500E478FFF6D8FD9F
:100013007900E94400601B7A00900084780175A0A0
:1000230000E493F2A308B8000205A0D9F4DAF2754C
:02003300A0FF2C
:10003B007800E84400600A790175A000E4F309D860
:10004B00FC7800E84400600C7900900001E4F0A318
:04005B00D8FCD9FAFA
:0D000600758107120080E58260030200038F
:040080007582002263
:00000001FF
