:03000000020006F5
:10005F00750807750911750A45750B14750C197517
:10006F000D81750E24750F007510197511307512ED
:10007F00317513327514337515347516357517368A
:10008F00751837751938751A39751B41751C4275F6
:10009F001D43751E44751F45752046752100752239
:0A00AF000075230075240002000311
:0300030002040BE9
:1000B9000508530807E5082409F9878222AD82AEAD
:1000C90083AFF08D828E838FF01207A26016E5F35D
:1000D90060FC8D828E838FF01207A2F5F2A3AD82A8
:1000E900AE8380DF22AF827401B5E10575FE018020
:1000F900F6852FE2AE308EE3852EE48FE675E700B4
:10010900AFE17401B5E10575FE0180F48F8222AF7C
:10011900827401B5E10575FE0180F6852FE2AE30E6
:100129008EE3852EE48FE675E701AFE17401B5E151
:100139000575FE0180F48F8222AF82BF0002800F15
:10014900BF01028011BF02028013BF031E801590F8
:1001590007F875F0802290082375F0802290083501
:1001690075F0802290085B75F0802290088275F006
:100179008022E5FB600485FA822275FE0180F3ADD9
:1001890082AE83AFF0E52E12073AA3E52F12073AA4
:10019900A3E53012073A74032DFDE43EFE8D828EED
:1001A900838FF074FF12073AA3747F02073A85829E
:1001B9002E85832F85F0307403252EFAE4352FFB25
:1001C900AC308A828B838CF01207A2F8A31207A2A3
:1001D900F9B8FF05B97F028021852E82852F838595
:1001E90030F01207A2FDA31207A2FEA31207A2FF75
:1001F9008D828E838FF0E812073A852E82852F83B0
:100209008530F01207A2FDA31207A2FEA31207A2CE
:10021900FF8D828E838FF01207A2FDBD2035852EBA
:1002290082852F838530F01207A2FDA31207A2FE53
:10023900A31207A2FF0DBD00010E852E82852F8313
:100249008530F0ED12073AA3EE12073AA3EF120731
:100259003A80A7852E82852F838530F01207A2FD6B
:10026900A31207A2FEA31207A2FF8D828E838FF02D
:100279001207A27006900000F5F022852E82852FC4
:10028900838530F01207A2F531A31207A2F532A334
:100299001207A2F533852E82852F838530F0120748
:1002A900A2F8A31207A2F9A31207A2FF88828983E1
:1002B9008FF01207A2FFBF20028038EF6035852E2C
:1002C90082852F838530F01207A2FDA31207A2FEB3
:1002D900A31207A2FF0DBD00010E852E82852F8373
:1002E9008530F0ED12073AA3EE12073AA3EF120791
:1002F9003A80A2852E82852F838530F01207A2FDD0
:10030900A31207A2FEA31207A2FF8D828E838FF08C
:100319001207A2FD7F008A828B838CF0ED12073AC7
:10032900A3EF12073A852E82852F838530F01207B5
:10033900A2FDA31207A2FEA31207A2FF8D828E833C
:100349008FF0E412073A8531828532838533F022B2
:10035900AD82AE83AFF0852E2F75300074F0552F26
:10036900FAE4CAC4540F6ACA540FCA6ACA30E3020B
:1003790044F0EA2411F987048D828E838FF0EC1200
:10038900073A0DBD00010E740F552F2411F987048A
:100399008D828E838FF0EC12073A0DBD00010E8D10
:1003A900828E838FF0E402073AAD82AE83AFF07C90
:1003B900008D828E838FF01207A2FB60150DBD00A0
:1003C900010EEB24D0FB8C02EA75F00AA4FA2BFC8F
:1003D90080DF8C8222AD82AE83AFF074012DFAE406
:1003E9003EFB8F048A828B838CF01207A2FC600982
:1003F900BC200280047582FF228D828E838FF002D9
:1004090003B290089D75F0801200C69008A675F099
:10041900801200C67E007F007C007D00C007C006F8
:10042900C005C00412017BAB82D004D005D006D030
:1004390007BB0A0EEE2401F582EF3400F583E4F0E0
:100449008020EC2401F582ED3400F583EBF00CBC3F
:1004590000010D8C068D07C3EC9480ED64809481B6
:1004690040BABE800EBF010B9008A975F08012003A
:10047900C68098752E01752F00753000900025757E
:10048900F04012018890002575F0401201B7AD8245
:10049900AE83AFF0ED4E700C9008CB75F080120072
:1004A900C60204148D828E838FF01207A2FCBC72DF
:1004B900047C00801D8D828E838FF01207A2FDBD02
:1004C90077047C01800C9008EB75F0801200C6025D
:1004D900041490002575F040C0041201B7AD82AE36
:1004E90083AFF0D004ED4E700C9008CB75F08012FC
:1004F90000C60204148D828E838FF0C0041203DEBD
:10050900AF82D004BFFF0C90090275F0801200C6BB
:1005190002041490002575F040C007C0041201B709
:10052900AB82AD83AEF0D004D007EB4D700C9008D0
:10053900CB75F0801200C60204148B828D838EF075
:10054900C007C0041203B2AE82D004D007EE600522
:10055900EE247F500C90092575F0801200C6020424
:1005690014EC700302066F7D00C3ED9E506E90007F
:100579002575F040C007C006C0051201B7AA82ABB5
:1005890083ACF0D005D006D007EA4B604FED24814B
:10059900F8E43401F98A828B838CF0C007C006C065
:1005A90005C001C0001203B2AC82D000D001D00551
:1005B90088828983ECF0ED2401FBE43402FCC00558
:1005C900C004C0031200B9AA82D003D004D005D058
:1005D90006D0078B828C83EAF00D808D8E2E752FC5
:1005E900817530018F82C007C0061200EEAD82D03E
:1005F90006D007EFFB3395E0FC8B828C83A3752E25
:100609000A752F00C006C005C004C0031207BEA9A1
:1006190082D003D004D005D00689828E2E752F0191
:10062900753002C006C005C004C0031200EED00335
:10063900D00474092BF582E43CF583752E0A752FD5
:10064900001207BEAB82D005D006752F01753002A6
:100659008E2E8B82C0051200EED0058D82120142CA
:100669001200C6020414752F817530018E2E8F82F7
:10067900C006120118AF82D0068F82C007C00612C9
:1006890001421200C6D006D007BF020302072E7F1F
:1006990000C3EF9E400302072EEF2481F582E43464
:1006A90001F583E0F52E90002A75F040C007C006D9
:1006B90012035990002A75F0401200C6D006D007DF
:1006C9008F047D008C828D83A3752E108D2FC0071A
:1006D900C006C005C0041207BEE5828583F0D004B8
:1006E900D005D006D00745F070260CBC00010D8E50
:1006F900027B00ECB50206EDB503028013900949AF
:1007090075F080C007C0061200C6D006D007801158
:1007190090094B75F080C007C0061200C6D006D0FC
:10072900070F02069A90094D75F0801200C602045F
:0107390014AB
:1007F800693263207374617475733A207472616E20
:1008080073616374696F6E20636F6D706C65746576
:1008180064202F2072656164790A0069326320734D
:1008280074617475733A20627573790A006932636A
:10083800207374617475733A206572726F72202D1B
:1008480020646576696365206E6F7420666F756EC7
:10085800640A00693263207374617475733A2065A1
:1008680072726F72202D20646576696365206D69E8
:1008780073626568617665640A006932632073741F
:10088800617475733A20756E6B6E6F776E20657242
:10089800726F720A00494E4954204F4B0A003E209D
:1008A800002D6572723A20636F6D6D616E642074FD
:1008B8006F6F206C6F6E672C2072656A6563746554
:1008C800640A002D6572723A20636F6D6D616E6403
:1008D80020666F726D617420696E636F72726563F2
:1008E800740A002D6572723A20756E6B6E6F776EA2
:1008F80020636F6D6D616E640A002D6572723A2017
:10090800706F727420696E76616C6964206F7220F2
:100918006E6F7420616C6C6F7765640A002D657268
:10092800723A204932432072657175657374206C80
:10093800656E67746820696E636F72726563740AA6
:0C094800000A0020000A2D656E640A0001
:06003500E478FFF6D8FD9F
:100013007900E94400601B7A00900954788175A047
:1000230002E493F2A308B8000205A0D9F4DAF2754A
:02003300A0FF2C
:10073A0020F71130F6138883A88220F509F6A883DA
:10074A007583002280FEF280F5F022E52E452F60A7
:10075A00467A01E52E25E0F52EE52F334012F52FD6
:10076A00E582952EE583952F40030A80E6C3E52F9F
:10077A0013F52FE52E13F52EC3E582952EF5F0E538
:10078A0083952F4005F58385F082C3E52F13F52F56
:08079A00E52E13F52EDAE12231
:10003B007800E84400600A790175A000E4F309D860
:10004B00FC7880E84402600C7903900001E4F0A393
:04005B00D8FCD9FAFA
:0D0006007581331207F4E5826003020003E8
:1007A20020F71430F6148883A88220F507E6A88380
:1007B20075830022E280F7E49322E022C2D5E5832A
:1007C20030E70DD2D5E4C39582F582E49583F583B3
:1007D200E52F30E70BE4C3952EF52EE4952FF52F88
:1007E20012075530D50BE4C39582F582E49583F563
:0607F20083227582002243
:00000001FF
